{
  "contractName": "SlenToken",
  "abi": [
    {
      "inputs": [],
      "stateMutability": "nonpayable",
      "type": "constructor"
    },
    {
      "anonymous": false,
      "inputs": [
        {
          "indexed": true,
          "internalType": "address",
          "name": "_from",
          "type": "address"
        },
        {
          "indexed": true,
          "internalType": "address",
          "name": "_to",
          "type": "address"
        },
        {
          "indexed": false,
          "internalType": "uint256",
          "name": "_value",
          "type": "uint256"
        }
      ],
      "name": "Transfer",
      "type": "event"
    },
    {
      "inputs": [
        {
          "internalType": "address",
          "name": "",
          "type": "address"
        }
      ],
      "name": "balanceOf",
      "outputs": [
        {
          "internalType": "uint256",
          "name": "",
          "type": "uint256"
        }
      ],
      "stateMutability": "view",
      "type": "function",
      "constant": true
    },
    {
      "inputs": [],
      "name": "name",
      "outputs": [
        {
          "internalType": "string",
          "name": "",
          "type": "string"
        }
      ],
      "stateMutability": "view",
      "type": "function",
      "constant": true
    },
    {
      "inputs": [],
      "name": "owner",
      "outputs": [
        {
          "internalType": "address",
          "name": "",
          "type": "address"
        }
      ],
      "stateMutability": "view",
      "type": "function",
      "constant": true
    },
    {
      "inputs": [],
      "name": "standard",
      "outputs": [
        {
          "internalType": "string",
          "name": "",
          "type": "string"
        }
      ],
      "stateMutability": "view",
      "type": "function",
      "constant": true
    },
    {
      "inputs": [],
      "name": "symbol",
      "outputs": [
        {
          "internalType": "string",
          "name": "",
          "type": "string"
        }
      ],
      "stateMutability": "view",
      "type": "function",
      "constant": true
    },
    {
      "inputs": [],
      "name": "totalSupply",
      "outputs": [
        {
          "internalType": "uint256",
          "name": "",
          "type": "uint256"
        }
      ],
      "stateMutability": "view",
      "type": "function",
      "constant": true
    },
    {
      "inputs": [
        {
          "internalType": "address",
          "name": "receiver",
          "type": "address"
        },
        {
          "internalType": "uint256",
          "name": "amount",
          "type": "uint256"
        }
      ],
      "name": "mint",
      "outputs": [],
      "stateMutability": "nonpayable",
      "type": "function"
    },
    {
      "inputs": [
        {
          "internalType": "address",
          "name": "receiver",
          "type": "address"
        },
        {
          "internalType": "uint256",
          "name": "amount",
          "type": "uint256"
        }
      ],
      "name": "transfer",
      "outputs": [],
      "stateMutability": "nonpayable",
      "type": "function"
    }
  ],
  "bytecode": "0x60806040526040518060400160405280600881526020017f536c656e636f696e0000000000000000000000000000000000000000000000008152506000908051906020019061004f929190610146565b506040518060400160405280600381526020017f534c4e00000000000000000000000000000000000000000000000000000000008152506001908051906020019061009b929190610146565b506040518060400160405280600d81526020017f536c656e636f696e2056312e3000000000000000000000000000000000000000815250600290805190602001906100e7929190610146565b50662386f26fc100006004553480156100ff57600080fd5b5033600360006101000a81548173ffffffffffffffffffffffffffffffffffffffff021916908373ffffffffffffffffffffffffffffffffffffffff1602179055506101eb565b828054600181600116156101000203166002900490600052602060002090601f016020900481019282601f1061018757805160ff19168380011785556101b5565b828001600101855582156101b5579182015b828111156101b4578251825591602001919060010190610199565b5b5090506101c291906101c6565b5090565b6101e891905b808211156101e45760008160009055506001016101cc565b5090565b90565b610909806101fa6000396000f3fe608060405234801561001057600080fd5b50600436106100885760003560e01c806370a082311161005b57806370a08231146101ff5780638da5cb5b1461025757806395d89b41146102a1578063a9059cbb1461032457610088565b806306fdde031461008d57806318160ddd1461011057806340c10f191461012e5780635a3b7e421461017c575b600080fd5b610095610372565b6040518080602001828103825283818151815260200191508051906020019080838360005b838110156100d55780820151818401526020810190506100ba565b50505050905090810190601f1680156101025780820380516001836020036101000a031916815260200191505b509250505060405180910390f35b610118610410565b6040518082815260200191505060405180910390f35b61017a6004803603604081101561014457600080fd5b81019080803573ffffffffffffffffffffffffffffffffffffffff16906020019092919080359060200190929190505050610416565b005b6101846105a1565b6040518080602001828103825283818151815260200191508051906020019080838360005b838110156101c45780820151818401526020810190506101a9565b50505050905090810190601f1680156101f15780820380516001836020036101000a031916815260200191505b509250505060405180910390f35b6102416004803603602081101561021557600080fd5b81019080803573ffffffffffffffffffffffffffffffffffffffff16906020019092919050505061063f565b6040518082815260200191505060405180910390f35b61025f610657565b604051808273ffffffffffffffffffffffffffffffffffffffff1673ffffffffffffffffffffffffffffffffffffffff16815260200191505060405180910390f35b6102a961067d565b6040518080602001828103825283818151815260200191508051906020019080838360005b838110156102e95780820151818401526020810190506102ce565b50505050905090810190601f1680156103165780820380516001836020036101000a031916815260200191505b509250505060405180910390f35b6103706004803603604081101561033a57600080fd5b81019080803573ffffffffffffffffffffffffffffffffffffffff1690602001909291908035906020019092919050505061071b565b005b60008054600181600116156101000203166002900480601f0160208091040260200160405190810160405280929190818152602001828054600181600116156101000203166002900480156104085780601f106103dd57610100808354040283529160200191610408565b820191906000526020600020905b8154815290600101906020018083116103eb57829003601f168201915b505050505081565b60045481565b600360009054906101000a900473ffffffffffffffffffffffffffffffffffffffff1673ffffffffffffffffffffffffffffffffffffffff163373ffffffffffffffffffffffffffffffffffffffff16146104d9576040517f08c379a00000000000000000000000000000000000000000000000000000000081526004018080602001828103825260168152602001807f596f7520617265206e6f7420746865206f776e65722e0000000000000000000081525060200191505060405180910390fd5b6004548110610550576040517f08c379a000000000000000000000000000000000000000000000000000000000815260040180806020018281038252601a8152602001807f4d6178696d756d2069737375616e63652073756363656564656400000000000081525060200191505060405180910390fd5b80600560008473ffffffffffffffffffffffffffffffffffffffff1673ffffffffffffffffffffffffffffffffffffffff168152602001908152602001600020600082825401925050819055505050565b60028054600181600116156101000203166002900480601f0160208091040260200160405190810160405280929190818152602001828054600181600116156101000203166002900480156106375780601f1061060c57610100808354040283529160200191610637565b820191906000526020600020905b81548152906001019060200180831161061a57829003601f168201915b505050505081565b60056020528060005260406000206000915090505481565b600360009054906101000a900473ffffffffffffffffffffffffffffffffffffffff1681565b60018054600181600116156101000203166002900480601f0160208091040260200160405190810160405280929190818152602001828054600181600116156101000203166002900480156107135780601f106106e857610100808354040283529160200191610713565b820191906000526020600020905b8154815290600101906020018083116106f657829003601f168201915b505050505081565b600560003373ffffffffffffffffffffffffffffffffffffffff1673ffffffffffffffffffffffffffffffffffffffff168152602001908152602001600020548111156107d0576040517f08c379a00000000000000000000000000000000000000000000000000000000081526004018080602001828103825260158152602001807f496e73756666696369656e742062616c616e63652e000000000000000000000081525060200191505060405180910390fd5b80600560003373ffffffffffffffffffffffffffffffffffffffff1673ffffffffffffffffffffffffffffffffffffffff1681526020019081526020016000206000828254039250508190555080600560008473ffffffffffffffffffffffffffffffffffffffff1673ffffffffffffffffffffffffffffffffffffffff168152602001908152602001600020600082825401925050819055508173ffffffffffffffffffffffffffffffffffffffff163373ffffffffffffffffffffffffffffffffffffffff167fddf252ad1be2c89b69c2b068fc378daa952ba7f163c4a11628f55a4df523b3ef836040518082815260200191505060405180910390a3505056fea2646970667358221220494f37f1a44c8647670cdd2641c78f80cde25e00ac051efee17412e06ec14d2a64736f6c63430006020033",
  "source": "pragma solidity ^0.6.2;\r\n\r\ncontract SlenToken {\r\n\r\n\tstring public name = 'Slencoin';\r\n\tstring public symbol = 'SLN';\r\n    string public standard = 'Slencoin V1.0';\r\n    \r\n    address public owner; \r\n    uint256 public totalSupply = 1e16;\r\n\r\n\tevent Transfer (address indexed _from, address indexed _to,\tuint256 _value);\r\n\tmapping(address => uint256) public balanceOf;\r\n\r\n\tconstructor() public {\r\n\t\towner = msg.sender;\r\n\t}\r\n\t\r\n\t // Creates an amount of new tokens and sends them to an address.\r\n    function mint(address receiver, uint256 amount) public{\r\n    //     // Only the contract owner can call this function\r\n       require(msg.sender == owner, \"You are not the owner.\");\r\n\r\n    //     // Ensures a maximum amount of tokens\r\n        require(amount < totalSupply, \"Maximum issuance succeeded\");\r\n\r\n        // Increases the balance of `receiver` by `amount`\r\n        balanceOf[receiver] += amount;\r\n    }\r\n    \r\n\t\r\n\t // Sends an amount of existing tokens from any caller to an address.\r\n    function transfer(address receiver, uint256 amount) public {\r\n        // The sender must have enough tokens to send\r\n       require(amount <= balanceOf[msg.sender], \"Insufficient balance.\");\r\n\r\n        // Adjusts token balances of the two addresses\r\n        balanceOf[msg.sender] -= amount;\r\n        balanceOf[receiver] += amount;\r\n\r\n        // Emits the event defined earlier\r\n        emit Transfer(msg.sender, receiver, amount);\r\n    }\r\n\r\n}",
  "sourcePath": "C:/wamp64/www/norm1/ethereum/8.eth-token-sale/contracts/SlenToken.sol",
  "compiler": {
    "name": "solc",
    "version": "0.6.2+commit.bacdbe57.Emscripten.clang"
  },
  "schemaVersion": "3.3.0",
  "updatedAt": "2021-01-05T07:05:00.389Z",
  "networkType": "ethereum",
  "devdoc": {
    "methods": {}
  },
  "userdoc": {
    "methods": {}
  }
}